:020000040800F2
:1000000000000220412800083509000837090008CF
:10001000390900083B0900083D09000800000000FC
:100020000000000000000000000000003F09000880
:1000300041090008000000004309000845090008C4
:1000400091280008912800089128000891280008AC
:10005000912800089128000891280008912800089C
:10006000912800089128000891280008912800088C
:10007000912800089128000891280008912800087C
:10008000912800089128000891280008912800086C
:10009000912800089128000891280008912800085C
:1000A000912800089128000891280008912800084C
:1000B000912800089128000891280008912800083C
:1000C000912800089128000891280008912800082C
:1000D000912800089128000891280008912800081C
:1000E000912800089128000891280008912800080C
:1000F00091280008912800089128000891280008FC
:1001000091280008912800089128000891280008EB
:1001100091280008912800089128000891280008DB
:1001200091280008912800089128000891280008CB
:10013000912800080000000000000000912800083D
:1001400091280008912800089128000891280008AB
:10015000912800089128000891280008912800089B
:10016000912800089128000891280008912800088B
:10017000912800089128000891280008000000003C
:1001800000000000912800080000000000000000AE
:1001900091280008000000000000000091280008DD
:1001A000000000000000000000000000912800088E
:1001B000912800089128000891280008912800083B
:0401C000912800087A
:1001D00010B5054C237833B9044B13B10448AFF381
:1001E00000800123237010BD5C000020000000008F
:1001F000D431000808B5034B1BB103490348AFF3E2
:10020000008008BD0000000060000020D43100081C
:10021000034613F8012B002AFBD1181A0138704746
:1002200001F0FF01102A2BDB10F0070F08D010F8A7
:10023000013B013A8B422DD010F0070F42B3F6D1AB
:10024000F0B441EA012141EA014122F007047FF0C4
:1002500000070023F0E80256083C85EA010586EA1B
:10026000010685FA47F5A3FA87F586FA47F6A5FA57
:1002700087F68EB9EED1F0BC01F0FF0102F0070263
:1002800032B110F8013B013A83EA010313B1F8D10E
:100290000020704701387047002D06BF35460338EF
:1002A000073815F0010F07D1013015F4807F02BF28
:1002B000013015F4C03F0130F0BC0138704700BF79
:1002C00053B94AB9002908BF00281CBF4FF0FF31BD
:1002D0004FF0FF3000F06AB9ADF1080C6DE904CEC3
:1002E00000F006F8DDF804E0DDE9022304B0704711
:1002F0002DE9F047089D0C46002B4ED194468C45C5
:100300008646B2FA82F262D94AB1C2F12003914024
:1003100020FA03F30CFA02FC194300FA02FE4FEA3A
:100320001C471FFA8CF6B1FBF7F44FEA1E4307FB9C
:10033000141143EA014304FB06F199420AD91CEB6C
:10034000030304F1FF3080F01281994240F20F81E3
:10035000023C6344591A1FFA8EF3B1FBF7F007FB16
:10036000101143EA014300FB06F69E420AD91CEB3A
:10037000030300F1FF3180F0FC809E4240F2F980DF
:10038000634402389B1B40EA044000211DB1D34066
:100390000022C5E90032BDE8F0878B4205D90DB1D6
:1003A000C5E9000100210846F5E7B3FA83F1002909
:1003B00046D1A34202D39042C0F0F080861A64EB8B
:1003C00003030120002DE6D0C5E90063E3E7002A1E
:1003D00040F09080A1EB0C044FEA1C481FFA8CF708
:1003E0000121B4FBF8F64FEA1E4308FB164443EA2A
:1003F000044307FB06F0984208D91CEB030306F1FF
:10040000FF3402D2984200F2CD8026461C1A1FFA11
:100410008EF3B4FBF8F008FB104443EA044300FBFE
:1004200007F79F4208D91CEB030300F1FF3402D207
:100430009F4200F2B0802046DB1B40EA0640A5E761
:10044000C1F120068B4022FA06F71F4320FA06FC72
:1004500004FA01F343EA0C03F44000FA01F8380C03
:100460004FEA1349B4FBF0FE1FFA87FC00FB1E4461
:1004700049EA04440EFB0CF9A14502FA01F20AD93B
:100480003C190EF1FF3A80F08480A14540F2818052
:10049000AEF1020E3C44A4EB09041FFA83F9B4FB4D
:1004A000F0F300FB134449EA044403FB0CFCA445AD
:1004B00007D93C1903F1FF3067D2A44565D9023B47
:1004C0003C4443EA0E40A0FB0293A4EB0C049C4284
:1004D000CE469C4651D34ED055B1B8EB0E0364EBDB
:1004E0000C0404FA06F6CB401E43CC40C5E9006478
:1004F000002150E7C2F1200320FA03F10CFA02FCBC
:1005000024FA03F394400C434FEA1C4800FA02FE1D
:100510001FFA8CF7B3FBF8F008FB1031230C43EA09
:10052000014300FB07F1994208D91CEB030300F1DA
:10053000FF362CD299422AD9023863445B1AA4B2FE
:10054000B3FBF8F108FB113344EA034401FB07F362
:10055000A34208D91CEB040401F1FF3613D2A342D5
:1005600011D902396444E41A41EA004139E70446EA
:10057000F0E6084606E7C845AED2B9EB020E63EBDB
:10058000070C0138A8E73146EDE7034699E7304606
:10059000D4E7D6467FE7634402384DE70646234654
:1005A00008460FE7023E634430E700BF704700BFD4
:1005B00030B58BB0002405940694079408940994F0
:1005C0000194224B1A6B42F004021A631A6B02F078
:1005D00004020192019A02941A6B42F080021A639B
:1005E0001A6B02F080020292029A03941A6B42F094
:1005F00001021A631A6B02F001020392039A049437
:100600001A6B42F002021A631B6B03F0020304939D
:10061000049B0F4D22462021284601F09BF84FF401
:10062000005305934FF404130693079405A9094852
:1006300000F0A0FF2023059301230693079408945C
:1006400005A9284600F096FF0BB030BD00380240E7
:10065000000002400008024072B6FEE708B50A48F2
:100660000A4B03604FF4E133436000238360C360AF
:1006700003610C2242618361C36100F024FB00B975
:1006800008BDFFF7E9FF00BFD00000200044004094
:1006900008B50A480A4B03600A4B43600023836095
:1006A000C3604FF48042026143618361C3610362AE
:1006B00001F0B2FB00B908BDFFF7CEFF1801002022
:1006C00000540040A086010000B585B000230093CF
:1006D0000193029303931448144A02604FF480324A
:1006E000426083600361037680F82030C362104A61
:1006F0008262C3600122C26180F83030426101F041
:100700003DFF60B9002300930122019202936946E4
:10071000054801F05FFF20B905B05DF804FBFFF765
:100720009BFFFFF799FF00BF6C01002000200140F4
:100730000100000F08B50D480D4B03604FF48273A4
:10074000436000238360C360036143614FF4007220
:1007500082611022C2610362436283620A23C36220
:1007600002F00FF800B908BDFFF776FF780000200F
:100770000030014000B595B03422002107A802F0F6
:10078000A9F800230293039304930593069300931F
:100790001F4A116C41F080511164126C02F08052BA
:1007A0000092009A01931B490A6822F4404242F4E5
:1007B00080420A600A6802F440420192019A0222D1
:1007C000079201210A9110210B910D920E930F9126
:1007D0004FF4A8731093042311931292139207A855
:1007E00000F0A6FC80B90F2302930221039100239D
:1007F00004934FF480520592069302A800F0FAFA8F
:1008000020B915B05DF804FBFFF726FFFFF724FFC2
:10081000003802400070004000B595B001F030F89B
:10082000FFF7A8FFFFF7C4FEFFF718FFFFF730FF41
:10083000FFF74AFFFFF77EFF384A11AB07CA03C331
:100840001A7011A8FFF7E4FC4FF0FF3382B211A930
:10085000334800F068FA10238DF840302BE0002375
:100860008DF82C302F4A0BAB07CA03C31A700BA8A4
:10087000FFF7CEFC4FF0FF3382B20BA9284800F0FF
:1008800052FAC8230093022310AA4721264801F0F8
:100890005DFC00282FD110AA244903A801F0FAFF1B
:1008A0004FF0FF3382B203A91D4800F03CFA4FF429
:1008B0007A7001F011F8C8230093012310AA462191
:1008C000194801F087FB0028C9D100238DF82C308E
:1008D000174B0DF12C0C0FCBACE807008CF8003057
:1008E0000BA8FFF795FC4FF0FF3382B20BA90C4821
:1008F00000F019FAC5E700238DF82C30094A0BAB3C
:1009000007CA03C31A700BA8FFF782FC4FF0FF332E
:1009100082B20BA9024800F006FAC8E7EC310008E1
:10092000D00000200832000818010020143200080E
:10093000F8310008FEE7FEE7FEE7FEE7FEE7704756
:100940007047704708B500F0B5FF08BD00B583B02B
:10095000002100910C4B5A6C42F480425A645A6C4C
:1009600002F480420092009A01911A6C42F0805287
:100970001A641B6C03F080530193019B072000F065
:1009800023FF03B05DF804FB0038024000B589B0D6
:10099000002303930493059306930793026803F1DE
:1009A000804303F590339A4202D009B05DF804FB0E
:1009B0000021019103F58C335A6C42F480725A6421
:1009C0005A6C02F480720192019A02911A6B42F001
:1009D00001021A631B6B03F001030293029B0323C2
:1009E0000393049303A9024800F0C4FDDDE700BFB0
:1009F0000000024030B589B00023039304930593AF
:100A0000069307930268144B9A4201D009B030BD97
:100A100000250195114C236B43F002032363236BE4
:100A200003F002030193019B4FF4407303931223DD
:100A30000493032306930423079303A9084800F0B3
:100A400099FD0295236C43F400132364236C03F493
:100A500000130293029BD9E7005400400038024083
:100A60000004024000B589B000230393049305936A
:100A7000069307930268154B9A4202D009B05DF8BD
:100A800004FB0021019103F5FA331A6C42F40032A1
:100A90001A641A6C02F400320192019A02911A6BE4
:100AA00042F001021A631B6B03F001030293029BE5
:100AB0000C23039302230493032306930723079332
:100AC00003A9034800F056FDD8E700BF00440040EA
:100AD00000000240026802F10C0353E8003F23F4D7
:100AE00090730C3242E800310029F3D1026802F120
:100AF000140353E8003F23F00103143242E80031AD
:100B00000029F3D1036B012B05D0202380F842305C
:100B1000002303637047026802F10C0353E8003FAF
:100B200023F010030C3242E800310029F3D1ECE746
:100B300010B504460268136923F44053C1680B439F
:100B40001361836802691A4343691A43C3691A43EC
:100B50000168CB6823F4164323F00C031343CB60E6
:100B60000268536923F4407381690B43536103683E
:100B7000314A934206D002F58062934202D000F0DF
:100B8000EFF901E000F0FCF9E369B3F5004F29D07B
:100B90000021031849411B1841F10001C90041EA35
:100BA0005371DB00181863684FEA83024FEA9373AE
:100BB00041F10001FFF784FB204AA2FB0031490903
:100BC000642303FB11031B013233A2FB03235B09E4
:100BD00003F0F00202EB011203F00F03216813444B
:100BE0008B6010BD0023021843EB0301121841F182
:100BF0000001C90041EA5271D200101841F1000110
:100C0000626892185B41FFF75BFB0C4AA2FB003164
:100C10004909642303FB1103DB003233A2FB0323E6
:100C20005B095A0002F4F87202EB011203F00703A9
:100C3000216813448B60D4E7001001401F85EB51FD
:100C40002DE9F04383B005460E4617469946DDF878
:100C500028802B681C6836EA04040CBF0124002499
:100C6000BC4228D1B8F1FF3FF3D000F02FFEA0EB3B
:100C70000900404523D8B8F1000F22D02B68DA686C
:100C800012F0040FE5D0802EE3D0402EE1D01A6898
:100C900012F0080FDDD0002401941A6801925B68FD
:100CA0000193019B2846FFF715FF08236B6485F825
:100CB0004040012000E0002003B0BDE8F0830320A5
:100CC000FAE70320F8E760B310B5044690F8413026
:100CD00013B3242384F841302268D36823F40053EB
:100CE000D3602046FFF724FF2268136923F4904362
:100CF00013612268536923F02A0353612268D36881
:100D000043F40053D36000206064202384F8413012
:100D100084F84230606310BD80F84030FFF7A2FED7
:100D2000D7E7012070472DE9F04182B01E4690F8C8
:100D30004130DBB2202B56D104460D4690460029A7
:100D400055D00AB901204FE000234364212380F8E5
:100D5000413000F0BBFD0746A4F82480A4F82680AB
:100D6000A368B3F5805F02D04FF0000814E0236958
:100D70002BB34FF000080FE0202384F8413003200C
:100D800032E038F8023B2268C3F308035360E28C78
:100D900092B2013A92B2E284E38C9BB293B1009694
:100DA0003B46002280212046FFF74AFF0028E3D17E
:100DB000002DE6D015F8012B23685A60E7E7A84616
:100DC0000025E9E700963B46002240212046FFF738
:100DD00037FF18B9202384F8413005E0202384F838
:100DE0004130032000E0022002B0BDE8F081012084
:100DF000FAE70000002800F09B8070B50D4604461D
:100E00004F4B1B6803F00F038B4208D2CBB24C4A06
:100E10001370136803F00F038B4240F08B8023683C
:100E200013F0020F17D013F0040F04D0454A936853
:100E300043F4E0539360236813F0080F04D0414A51
:100E4000936843F4604393603E4A936823F0F00351
:100E5000A1680B439360236813F0010F32D06368DD
:100E6000012B21D09A1E012A25D9364A126812F088
:100E7000020F61D033498A6822F0030213438B606A
:100E800000F024FD06462F4B9B6803F00C036268BC
:100E9000B3EB820F16D000F019FD801B41F28833AE
:100EA0009842F0D9032042E0264A126812F4003F2B
:100EB000E0D101203BE0234A126812F0007FD9D133
:100EC000012034E01E4B1B6803F00F03AB4207D92F
:100ED000EAB21B4B1A701B6803F00F03AB422DD113
:100EE000236813F0040F06D0164A936823F4E053E6
:100EF000E1680B439360236813F0080F07D0114A91
:100F0000936823F46043216943EAC103936000F0CE
:100F100047F80C4B9B68C3F303130B4AD35CD840D0
:100F20000A4B18600A4B186800F084FC002070BD62
:100F3000012070470120FAE70120F8E70120F6E7D9
:100F4000003C024000380240243200080800002023
:100F500004000020014B1868704700BF0800002003
:100F600008B5FFF7F7FF044B9B68C3F38223034ADE
:100F7000D35CD84008BD00BF003802401C320008D6
:100F800008B5FFF7E7FF044B9B68C3F34233034AFE
:100F9000D35CD84008BD00BF003802401C320008B6
:100FA00008B5604B9B6803F00C03082B07D00C2B93
:100FB0005FD0042B01D05C4808BD5C48FCE7594B6E
:100FC0005A6802F03F025B6813F4800F2CD0554B37
:100FD0005868C0F388104FEA401CBCEB000C6EEB65
:100FE0000E0E4FEA8E1343EA9C634FEA8C11B1EB6D
:100FF0000C0163EB0E03DB0043EA5173C90011EBF4
:10100000000C43F10003590200234FEA4C2041EA4F
:10101000DC51FFF755F9434B5B68C3F301430133E0
:101020005B00B0FBF3F0C7E73E4B5868C0F3881095
:101030004FEA401CBCEB000C6EEB0E0E4FEA8E1319
:1010400043EA9C634FEA8C11B1EB0C0163EB0E0396
:10105000DB0043EA5173C90011EB000C43F10003BC
:10106000990200234FEA8C2041EA9C51FFF728F9AE
:10107000D1E72C4B5A6802F03F025B6813F4800FF3
:101080002AD0284B5868C0F388104FEA401CBCEBAC
:10109000000C6EEB0E0E4FEA8E1343EA9C634FEA90
:1010A0008C11B1EB0C0163EB0E03DB0043EA5173CF
:1010B000C90011EB000C43F10003590200234FEA71
:1010C0004C2041EADC51FFF7FBF8164B5B68C3F399
:1010D0000273B0FBF3F06FE7124B5868C0F388104F
:1010E0004FEA401CBCEB000C6EEB0E0E4FEA8E1369
:1010F00043EA9C634FEA8C11B1EB0C0163EB0E03E6
:10110000DB0043EA5173C90011EB000C43F100030B
:10111000990200234FEA8C2041EA9C51FFF7D0F856
:10112000D3E700BF003802400024F40000127A0028
:10113000002800F0018270B582B00446036813F005
:10114000010F41D0994B9B6803F00C03042B32D064
:10115000964B9B6803F00C03082B27D0934B9B689E
:1011600003F00C030C2B59D06368B3F5803F5BD0C0
:10117000B3F5A02F5ED08D4B1A6822F480321A602E
:101180001A6822F480221A606368002B5CD000F099
:101190009DFB0546854B1B6813F4003F14D100F0FE
:1011A00095FB401B6428F5D90320CCE17F4B5B689D
:1011B00013F4800FD2D07D4B1B6813F4003F03D093
:1011C0006368002B00F0BA81236813F0020F60D02F
:1011D000764B9B6813F00C0F4AD0744B9B6803F05E
:1011E0000C03082B3FD0714B9B6803F00C030C2BB6
:1011F00069D0E368002B75D06D4B01221A6000F0B6
:1012000065FB0546694B1B6813F0020F61D100F0C6
:101210005DFB401B0228F5D9032094E1634B5B681A
:1012200013F4800FA0D0C6E7604A136843F48033FC
:101230001360A9E75D4B1A6842F480221A601A68AD
:1012400042F480321A609FE700F040FB0546574B9E
:101250001B6813F4003FB7D000F038FB401B642834
:10126000F5D903206FE1514B5B6813F4800FBAD1BD
:101270004E4B1B6813F0020F03D0E368012B40F0C4
:101280005F814A4A136823F0F803216943EAC103E6
:101290001360236813F0080F49D06369002B33D023
:1012A000434B0122C3F8802E00F010FB05463F4B54
:1012B0005B6F13F0020F3AD100F008FB401B0228CD
:1012C000F5D903203FE1394B5B6813F4800F90D1CF
:1012D000CEE7364A136823F0F803216943EAC103D5
:1012E0001360D6E7324B00221A6000F0EFFA054691
:1012F0002E4B1B6813F0020FCBD000F0E7FA401B17
:101300000228F5D903201EE1294B0022C3F8802EC4
:1013100000F0DCFA0546254B5B6F13F0020F06D098
:1013200000F0D4FA401B0228F5D903200BE1236812
:1013300013F0040F76D01D4B1B6C13F0805F33D17C
:1013400000230193194B1A6C42F080521A641B6CF3
:1013500003F080530193019B0125164B1B6813F486
:10136000807F29D0A368012B3AD0052B3ED00F4BAC
:101370001A6F22F001021A671A6F22F004021A672C
:10138000A368002B3CD000F0A1FA0646074B1B6F68
:1013900013F0020F45D100F099FA801B41F2883317
:1013A0009842F3D90320CEE00025D6E7003802406A
:1013B00000004742007000406B4A136843F480739A
:1013C000136000F083FA0646674B1B6813F4807FB6
:1013D000C8D100F07BFA801B0228F5D90320B2E0C7
:1013E000624A136F43F001031367C9E75F4B1A6F3B
:1013F00042F004021A671A6F42F001021A67BFE74F
:1014000000F064FA0646594B1B6F13F0020F08D028
:1014100000F05CFA801B41F288339842F3D9032034
:1014200091E0EDB9A369002B00F08C804F4A9268DF
:1014300002F00C02082A54D0022B17D04C4B002289
:101440001A6600F043FA0446484B1B6813F0007F0D
:1014500045D000F03BFA001B0228F5D9032072E0CA
:10146000424A136C23F080531364DBE7404B0022A5
:101470001A6600F02BFA05463C4B1B6813F0007F00
:1014800006D000F023FA401B0228F5D903205AE0C9
:10149000E369226A1343626A43EA8213A26A52082A
:1014A000013A43EA0243E26A43EA0263226B43EAF7
:1014B00002732E4A53602E4B01221A6600F006FA80
:1014C00004462A4B1B6813F0007F06D100F0FEF99A
:1014D000001B0228F5D9032035E0002033E000206E
:1014E00031E0012B31D0214B5B6803F48001E269CC
:1014F00091422CD103F03F02216A8A4229D1616ACC
:1015000047F6C0721A40B2EB811F24D103F4403178
:10151000A26A5208013AB1EB024F1ED103F0706289
:10152000E16AB2EB016F1AD103F0E043226BB3EB37
:10153000027F16D1002006E001207047012002E062
:10154000012000E0002002B070BD0120FBE7012077
:10155000F9E70120F7E70120F5E70120F3E7012093
:10156000F1E70120EFE700BF0070004000380240C3
:101570000000474200230F2B00F2E38070B582B0D9
:1015800065E085684FEA430E032404FA0EF425EA69
:101590000405CC6804FA0EF42C438460446824EA01
:1015A00002044A68C2F300129A40224342605CE09F
:1015B000DC08083450F8242003F00705AD004FF094
:1015C0000F0E0EFA05FE22EA0E0E0A69AA4042EA42
:1015D0000E0240F824205CE0062200E0002202FA1D
:1015E0000EF22A430234574D45F82420564A946897
:1015F0006FEA0C0224EA0C054E6816F4801F01D035
:101600004CEA0405504CA560E46802EA04054E6803
:1016100016F4001F01D04CEA04054B4CE5606468E9
:1016200002EA04054E6816F4003F01D04CEA0405B6
:10163000454C6560246822404D6815F4803F01D018
:101640004CEA0402404C226001330F2B77D8012270
:101650009A400C6804EA020C32EA0404F4D14C68A3
:1016600004F00304013C012C8BD94A6802F0030208
:10167000032A09D0C4685D000322AA4024EA0204B8
:101680008A68AA402243C2604A6802F00302022A22
:101690008ED004684FEA430E032202FA0EF224EAC7
:1016A00002044A6802F0030202FA0EF222430260C8
:1016B0004A6812F4403FC7D000220192234A546C7A
:1016C00044F480445464526C02F480420192019AC2
:1016D0009C08A51C1B4A52F8255003F0030E4FEA44
:1016E0008E0E0F2202FA0EF225EA0205184A9042E7
:1016F0003FF474AF02F58062904216D002F580622A
:10170000904214D002F58062904212D002F58062BD
:10171000904210D002F5806290420ED002F58062B5
:1017200090423FF459AF072259E7012257E70222BE
:1017300055E7032253E7042251E705224FE702B0A1
:1017400070BD704700380140003C01400038024045
:10175000000002400AB1816170470904816170474D
:10176000002808DB0901C9B200F1604000F56140C2
:1017700080F80013704700F00F000901C9B2014B57
:101780001954704714ED00E000B500F00700C0F1F7
:10179000070CBCF1040F28BF4FF0040C031D062BEF
:1017A0000FD9C31E4FF0FF3E0EFA0CF021EA0001E4
:1017B00099400EFA03FE22EA0E0241EA02005DF8A9
:1017C00004FB0023EEE70000074AD36823F4E0633C
:1017D0001B041B0C000200F4E060034343F0BF63F2
:1017E00043F40033D360704700ED00E010B50446C9
:1017F000054BD868C0F30220FFF7C6FF014620461C
:10180000FFF7AEFF10BD00BF00ED00E00138B0F102
:10181000807F0BD24FF0E0235861054AF02182F817
:1018200023100020986107221A6170470120704739
:1018300000ED00E010B504460E4B1A784FF47A73B1
:10184000B3FBF2F30C4A1068B0FBF3F0FFF7DEFFD6
:1018500068B90F2C01D901200AE0002221464FF07F
:10186000FF30FFF7C3FF054B1C60002000E00120A4
:1018700010BD00BF00000020080000200400002070
:1018800008B50B4B1A6842F400721A601A6842F4E9
:1018900080621A601A6842F480721A600320FFF7AF
:1018A00093FF0020FFF7C6FFFFF750F8002008BDA8
:1018B000003C0240034A1168034B1B780B44136041
:1018C000704700BFB401002000000020014B1868E1
:1018D000704700BFB401002038B50446FFF7F6FF9B
:1018E0000546B4F1FF3F02D0044B1B781C44FFF7C0
:1018F000EDFF401BA042FAD338BD00BF000000201E
:10190000034AD2F8883043F47003C2F88830704735
:1019100000ED00E010B503460C4A0D490D48006883
:1019200040B10C4800680344521A934206D8094A51
:10193000136010BD0748084C0460F2E700F0D2FFC6
:101940000C2303604FF0FF30F3E700BF00000220DC
:1019500000040000B80100200803002003685A6951
:1019600012F4806F01D1002070476FF480625A61D9
:1019700000230363202280F83D2080F83E30026C73
:1019800042F00402026480F83C30012070472DE9E7
:10199000F04106460C46174698463BE0FFF796FF97
:1019A000069BC01A404502D8B8F1000F32D1012D74
:1019B00018D033689B6924EA03039BB2B3FA83F31C
:1019C0005B099F4226D100233363202286F83D2005
:1019D00086F83E30326C42F02002326486F83C30A9
:1019E000012027E033685B6924EA03039BB2B3FA62
:1019F00083F35B09E5E733685B6924EA030C1FFAAC
:101A00008CFCBCFA8CFC4FEA5C1C674511D1B8F128
:101A1000FF3FC3D1C4F30745012DECD033689B6968
:101A200024EA030C1FFA8CFCBCFA8CFC4FEA5C1C09
:101A3000EBE70020BDE8F0812DE9F84305460E46AE
:101A40009046994653E01A6842F400721A602B6877
:101A50006FF480625A6100232B63202285F83D20B9
:101A600085F83E302A6C42F004022A6485F83C3046
:101A700001204AE0FFF72AFFA0EB0900404502D809
:101A8000B8F1000F33D1012F17D02B689B6926EADC
:101A900003039BB2003B18BF012343B300232B6316
:101AA000202285F83D2085F83E302A6C42F0200245
:101AB0002A6485F83C30012027E02B685B6926EA20
:101AC00003039BB2003B18BF0123E6E72B689C6928
:101AD00026EA0404A4B2003C18BF0124A4B12B6878
:101AE0005A6912F4806FAED1B8F1FF3FC2D1C6F38C
:101AF0000747012FEAD12B685C6926EA0404A4B2E7
:101B0000003C18BF0124E9E70020BDE8F88300008D
:101B1000F0B583B004460D4616461F46C36A082B2F
:101B20000DD0012B0BD013F5803F08D0036B122B87
:101B30000AD10268136843F48073136004E02268DA
:101B4000136843F4807313600097334600224FF00C
:101B500001112046FFF71BFF80B92369B3F5804FC1
:101B600016D1236805F0FE051D613B463246134938
:101B70002046FFF761FFF8B903B0F0BD23681B688A
:101B800013F4807F02D04FF4007323640320F3E743
:101B9000EB11226803F0060343F0F00313613B46A8
:101BA000324607492046FFF747FF18B92368EDB2D0
:101BB0001D61DAE70120DFE70120DDE70200010017
:101BC000080001002DE9F04184B004460D46164698
:101BD0001F46C26A01680B6843F480630B60082AE1
:101BE0000DD0012A0BD012F5803F08D0036B112BCA
:101BF0000AD10268136843F48073136004E022681A
:101C0000136843F4807313600097334600224FF04B
:101C100001112046FFF7BBFE98B92369B3F5804F49
:101C200019D1236845F00105EDB21D613B463246EE
:101C30002A492046FFF700FF00284CD104B0BDE838
:101C4000F08123681B6813F4807F02D04FF4007387
:101C500023640320F2E74FEAE51808F0060823683A
:101C600048F0F0021A613B4632461D492046FFF714
:101C7000E3FE08B10120E1E72368EDB21D613B46B8
:101C8000324616492046FFF7D7FE08B10120D5E7B6
:101C9000002203922368596903919969039103997A
:101CA000196841F480711960009733464FF00111B3
:101CB0002046FFF76CFE20B9226848F0F10313615B
:101CC000B4E723681B6813F4807F02D04FF40073DD
:101CD00023640320B2E70120B0E700BF0200010047
:101CE0000800010070B504460D46164623685B697E
:101CF00013F0800F21D12046FFF730FEF8B9B5F17F
:101D0000FF3FF3D0FFF7E2FD801BA84201D8002D72
:101D1000ECD123685B6913F0800FE7D100232363C4
:101D2000202284F83D2084F83E30226C42F02002CC
:101D3000226484F83C30012000E0002070BD0120C6
:101D4000FCE770B504460D46164623685B6913F040
:101D5000040F21D12046FFF701FEF8B9B5F1FF3F8E
:101D6000F3D0FFF7B3FD801BA84201D8002DECD1C2
:101D700023685B6913F0040FE7D10023236320225B
:101D800084F83D2084F83E30226C42F02002226428
:101D900084F83C30012000E0002070BD0120FCE709
:101DA00070B504460D46164614E06FF010025A61F5
:101DB00000232363202284F83D2084F83E30226CE7
:101DC000226484F83C30012025E023685B6913F02D
:101DD000400F10D02368586910F0400F1AD158698D
:101DE00010F0100FE1D1FFF771FD801BA842ECD875
:101DF000002DEFD1E9E700232363202284F83D2062
:101E000084F83E30226C42F02002226484F83C3098
:101E1000012000E0002070BD002800F0CC8070B5EB
:101E2000044690F83D30002B77D0242384F83D30D1
:101E30002268136823F0010313602268136843F4D7
:101E4000004313602268136823F400431360FFF714
:101E500087F862685A4B9A4264D85A4B98428CBFB2
:101E600000230123002B40F0A8805749A1FB00313B
:101E70008B0C25686A6822F03F0242EA91426A6050
:101E800021680A6A22F03F0266684D4DAE424FD883
:101E9000013313430B622168CA6922F44F4222F0D6
:101EA000FF026568464B9D424CD8431E6D00B3FB54
:101EB000F5F3013340F6FC70034278D0C3F30B0313
:101EC0001A43CA6121680B6823F0C003E269206AE3
:101ED000024313430B6021688B6823F4034323F010
:101EE000FF032269E068024313438B602168CB68DB
:101EF00023F0FF036269A06902431343CB602268A9
:101F0000136843F00103136000202064202384F849
:101F10003D30206384F83E0070BD80F83C30FEF711
:101F200069FD82E7294B98428CBF0023012399E782
:101F30004FF4967505FB03F3254DA5FB03539B0951
:101F40000133A6E7A668BEB9431E05EB450CB3FBFB
:101F5000FCF30133C3F30B03B3FA83F35B0943BB15
:101F6000C6B9431E05EB4505B3FBF5F30133C3F3D7
:101F70000B0343F40043A3E7431E05EB850C0CEB76
:101F80008C0CB3FBFCF30133C3F30B03B3FA83F301
:101F90005B09E4E7431E05EB850505EB8505B3FB0F
:101FA000F5F30133C3F30B0343F4404388E7042301
:101FB00086E7012384E7012070470120ACE700BFDA
:101FC000A08601007F841E0083DE1B43FF083D00C6
:101FD000D34D62102DE9F04385B004460F4691467B
:101FE00098460C9EFFF772FC054694F83D00C0B27F
:101FF000202804D00227384605B0BDE8F0830095BC
:10200000192301224F492046FFF7C1FC002840F068
:10201000928094F83C30012B00F08F80012384F8EB
:102020003C3023681A6812F0010F03D11A6842F09D
:1020300001021A602268136823F4006313602123ED
:1020400084F83D30102384F83E3000232364C4F824
:102050002490A4F82A80638D23853B4BE3622B46B2
:10206000324639462046FFF753FD0746002866D121
:102070000023039323685A6903929B690393039B8C
:1020800011E0236C042B01D00127B4E72268136808
:1020900043F400731360F7E72A4631462046FFF702
:1020A00050FE00282ED1238D002B36D02A463146F3
:1020B0002046FFF717FE0028E3D1626A23681278F2
:1020C0001A61606A431C6362618D89B2013989B209
:1020D0006185238D013B9BB223852268516911F0F4
:1020E000040FD9D0002BD7D043781361636A013332
:1020F0006362638D9BB2013B9BB26385238D013B81
:102100002385C9E7236C042B01D0012773E72268DC
:10211000136843F400731360F7E72268136843F40D
:1021200000731360202384F83D30002384F83E3090
:1021300084F83C305FE702275DE702275BE7012771
:1021400059E700BF020010000000FFFF2DE9F04337
:1021500087B004460F46914698460E9EFFF7B6FBA1
:10216000054694F83D00C0B2202804D00227384626
:1021700007B0BDE8F0830095192301228949204664
:10218000FFF705FC002840F04F8194F83C30012B0C
:1021900000F04C81012384F83C3023681A6812F067
:1021A000010F03D11A6842F001021A602268136815
:1021B00023F400631360222384F83D30102384F855
:1021C0003E3000232364C4F82490A4F82A80638D51
:1021D0002385754BE3622B46324639462046FFF78E
:1021E000F1FC0746002840F02381238D5BB9029360
:1021F00023685A6902929A690292029A1A6842F412
:1022000000721A607AE0012B0FD0022B1FD02268D7
:10221000136843F4806313600023059323685A69AD
:1022200005929B690593059B68E02268136823F477
:10223000806313600023039323685A6903929A69A9
:102240000392039A1A6842F400721A6056E02268F8
:10225000136823F4806313602268136843F40063F7
:1022600013600023049323685A6904929B690493C2
:10227000049B43E02A4631462046FFF791FD0028A3
:1022800040F0D88023681A69636A1A70636A013360
:102290006362238D013B2385638D9BB2013B9BB21F
:1022A00063852BE000953346002240492046FFF726
:1022B0006EFB002840F0C0802268136843F400736E
:1022C000136023681A69636A1A70626A531C636236
:1022D000238D013B2385638D9BB2013B9BB26385BC
:1022E00023681B695370636A01336362238D013B6A
:1022F0002385638D9BB2013B9BB26385218D0029B1
:1023000000F08980032953D80129B3D00229C9D00C
:1023100000953346002225492046FFF738FB002868
:1023200040F08C802268136823F480631360236874
:102330001A69636A1A70636A01336362238D013B11
:102340002385618D89B2013989B261850095334653
:10235000002216492046FFF71AFB002870D1226898
:10236000136843F40073136023681A69636A1A7070
:10237000626A531C6362238D013B2385638D9BB28C
:10238000013B9BB2638523681B695370636A013309
:102390006362238D013B2385638D9BB2013B9BB21E
:1023A0006385ABE7020010000000FFFF040001009E
:1023B0002A4631462046FFF7F3FC002842D1236825
:1023C0001A69636A1A70636A01336362228D013A83
:1023D00092B22285638D9BB2013B9BB263852368D9
:1023E000596911F0040F89D0032A0FD023681A69A4
:1023F000636A1A70636A01336362238D013B23852C
:10240000638D9BB2013B9BB2638577E71A6822F428
:1024100080621A60EAE7202384F83D30002384F8C4
:102420003E3084F83C30A2E60227A0E602279EE672
:1024300001279CE601279AE6012798E6012796E600
:10244000012794E6012792E64A4B5A6822F440326B
:102450005A605A6841680A435A600268536823F414
:102460008073536002685368016943EA0123536033
:102470000268536823F040735360026853688168B0
:102480000B4353600268936823F40063936002680F
:102490009368C1680B439360826A374B9A4257D066
:1024A0000268936823F07063936002689368816A9E
:1024B0000B4393600268936823F040539360026873
:1024C0009368C16A0B4393600268936823F0020328
:1024D000936002689368017E43EA4103936090F839
:1024E0002030002B3FD00268536843F400635360F0
:1024F0000268536823F46043536001684B68426A82
:10250000013A43EA42334B600268D36A23F4700312
:10251000D3620168CB6AC269013A43EA0253CB62D3
:102520000268936823F4007393600268936890F8DC
:10253000301043EA412393600268936823F4806378
:10254000936002689368416943EA8123936070470E
:102550000268936823F0706393600268936823F0C5
:1025600040539360B0E70268536823F400635360FC
:10257000CAE700BF002301400100000F38B310B5C7
:102580000446036C43B1236C13F0100F0BD00120F1
:10259000002384F83C3010BDFEF7F8F90023636493
:1025A00084F83C30EFE7236C23F4885323F00203D4
:1025B00043F0020323642046FFF746FF00206064D7
:1025C000236C23F0030343F001032364E0E70120BD
:1025D0007047000030B482B00022019290F83C2095
:1025E000012A00F0C0800346012280F83C200A68DE
:1025F000092A40D90468E06892B202EB42021E3A0E
:102600004FF0070C0CFA02F220EA0202E2601C68AA
:10261000E0680A8802EB42021E3A8D6805FA02F26F
:102620000243E2604A68062A3CD81C68606B02EBF1
:102630008202053A4FF01F0C0CFA02F220EA020265
:1026400062631C68606B4A6802EB8202053AB1F86B
:1026500000C00CFA02F2024362631868434A9042D7
:1026600050D01868414A904259D0002083F83C006D
:1026700002B030BC70470468206992B202EB42029B
:102680004FF0070C0CFA02F220EA020222611C68E9
:1026900020690A8802EB42028D6805FA02F20243C1
:1026A0002261BFE70C2A16D81D68286B02EB820254
:1026B000233A1F2404FA02F220EA02022A631D6868
:1026C000286B4A6802EB8202233A0C8804FA02F271
:1026D00002432A63C1E71D68E86A02EB8202413ABD
:1026E0001F2404FA02F220EA0202EA621D68E86A84
:1026F0004A6802EB8202413A0C8804FA02F2024371
:10270000EA62AAE70A68122AABD1194A506820F493
:1027100000005060506840F480005060A1E70A68F3
:102720001448824201D0112A9FD1114A506820F4E6
:1027300080005060506840F40000506009680D4A05
:10274000914292D10C4A12680C49A1FB0212920CE0
:1027500002EB820252000192019A002A85D0019A6E
:10276000013A0192F8E7022082E700BF0020014011
:1027700000230140120000100800002083DE1B43EC
:10278000704700285AD010B50446436A33B94368ED
:10279000B3F5827F05D00023C36102E0002303610B
:1027A00043610023A36294F85130002B40D00223F0
:1027B00084F851302268136823F040031360636883
:1027C00003F48273A26802F404421343E26802F441
:1027D00000621343226902F002021343626902F0AD
:1027E00001021343A26902F400721343E26902F08A
:1027F00038021343226A02F080021343A26A02F4F1
:102800000052216813430B60638B03F00403626A78
:1028100002F01002216813434B602268D36923F44D
:102820000063D36100206065012384F8513010BD3E
:1028300084F850302046FFF7A3FFB8E70120704727
:10284000DFF834D0FFF75CF80C480D490D4A00233F
:1028500002E0D458C4500433C4188C42F9D30A4A55
:102860000A4C002301E013600432A242FBD300F0C3
:102870003FF8FDF7D1FF7047000002200000002064
:102880005C000020783200085C0000200403002077
:10289000FEE700000EB400B59CB01DAB02900690A0
:1028A0006FF00041094807910491094953F8042B3E
:1028B00005910068019302A900F094F9029B00229F
:1028C0001A701CB05DF804EB03B070470C000020D8
:1028D0000802FFFF02440346934200D1704703F809
:1028E000011BF9E7014B1868704700BF0C0000207E
:1028F00070B50D4D0D4C641BA4100026A64209D1E5
:102900000B4D0C4C00F066FC641BA4100026A64284
:1029100005D170BD55F8043B98470136EEE755F8F0
:10292000043B98470136F2E7703200087032000825
:1029300070320008743200087047704738B5054699
:10294000002941D051F8043C0C1F002BB8BFE418FB
:1029500000F0E0F81D4A136833B96360146028463C
:10296000BDE8384000F0DCB8A34208D9206821183F
:102970008B4201BF19685B6809182160EDE71A46B0
:102980005B680BB1A342FAD911685018A0420BD171
:1029900020680144501883421160E0D118685B68D8
:1029A000536008441060DAE702D90C232B60D6E7A5
:1029B000206821188B4204BF19685B68636004BFFC
:1029C000091821605460CAE738BD00BF0003002029
:1029D00070B50F4E0C463168054611B900F0A6FBE4
:1029E00030602146284600F0A1FB431C03D14FF084
:1029F000FF34204670BDC41C24F00304A042F8D06C
:102A0000211A284600F092FB0130F2D1EFE700BF17
:102A1000FC0200202DE9F843CD1C25F00305083504
:102A20000C2D38BF0C25002D064601DBA94204D928
:102A30000C2333600020BDE8F883DFF8D48000F079
:102A400069F8D8F800301C4644BB29463046FFF7E9
:102A5000BFFF431C044658D1D8F800402746002F3A
:102A600043D1002C4BD023683946304604EB030990
:102A700000F05CFB814542D121686D1A2946304641
:102A8000FFF7A6FF01303AD023682B442360D8F823
:102A900000305A6862BBC8F800700FE02268521B11
:102AA00020D40B2A17D96119A342256018BF596099
:102AB000636808BFC8F8001062514B60304600F0F0
:102AC0002FF804F10B00231D20F00700C21A1CBFD1
:102AD0001B1AA350AFE76268A3420CBFC8F80020DE
:102AE0005A60EBE723466468AEE73C467F68B6E78A
:102AF0001A465B68A342FBD100235360DEE70C2338
:102B00003360304600F00CF894E70560D6E700BF6C
:102B1000000300200148FFF70FBF00BFF8020020AC
:102B20000148FFF70ABF00BFF80200202DE9F04777
:102B30008E681F46BE420B6882460C4690462DD8D2
:102B4000B1F90C2012F4906F26D06569096905EB84
:102B50004505A3EB010905EBD5757B1C4B446D10B6
:102B60009D4238BF1D46530527D52946FFF752FF22
:102B7000064660B321694A4600F0E8FAA38923F4C7
:102B8000906343F08003A381266165614E44A5EB09
:102B900009052660A5603E46BE4200D93E46206833
:102BA0003246414600F0A8FAA3689B1BA360236845
:102BB000334423600020BDE8F0872A4600F0D4FAB1
:102BC00006460028E0D121695046FFF7B7FE0C23E6
:102BD000CAF80030A38943F04003A3814FF0FF30CF
:102BE000E9E700002DE9F04F98468B891B069DB060
:102BF00007460D46144610D50B6973B94021FFF7FF
:102C000009FF2860286130B90C233B604FF0FF308A
:102C10001DB0BDE8F08F40236B6100230993202392
:102C20008DF82930CDF80C803023DFF89C818DF8A9
:102C30002A304FF0010923469A4613F8012B0AB1B6
:102C4000252AF9D1BAEB040B0BD05B462246294664
:102C50003846FFF76BFF013000F0A780099A5A440D
:102C600009929AF80030002B00F09F8000234FF06B
:102C7000FF32CDE905230AF1010A049307938DF889
:102C800053301A935446052214F8011B4E48FDF7A1
:102C9000C7FA049AD8B9D00644BF20238DF8533020
:102CA000110744BF2B238DF853309AF800302A2B9C
:102CB00015D0079A544600204FF00A0C214611F80F
:102CC000013B303B092B4BD9B0B1079214E0A0EB8C
:102CD000080309FA03F313430493A246D2E7039BC4
:102CE000191D1B680391002BBBBF5B4242F002021F
:102CF00007930793B8BF049223782E2B0AD16378E9
:102D00002A2B32D1039B1A1D1B68039243EAE373FB
:102D100002340593DFF8C0A0217803225046FDF766
:102D20007FFA38B1049BA0EB0A0040228240134393
:102D30000134049314F8011B24488DF8281006224E
:102D4000FDF76EFA002836D0214B1BBB039B0733DF
:102D500023F0070308330393099B334409936AE77D
:102D60000CFB02320C460120A8E700230134059336
:102D700019464FF00A0C204610F8012B303A092A68
:102D800003D9002BC6D00591C4E70CFB01210446F2
:102D90000123F0E703AB00932A460E4B04A9384603
:102DA000AFF30080421C0646D6D1AB895B063FF5E7
:102DB0002DAF09982CE703AB00932A46054B04A9D5
:102DC000384600F079F8EDE7343200083E3200086A
:102DD000000000002D2B00083A3200082DE9F047D2
:102DE000164698468A680B69DDF820909342B8BF72
:102DF0001346336091F8432007460C460AB101336D
:102E000033602368990642BF336802333360256814
:102E100015F0060506D104F1190AE36832689B1A19
:102E2000AB4226DC94F843302268003B18BF0123F4
:102E300092062BD404F1430241463846C84701307C
:102E40001ED02368226903F00603042B02BFE56845
:102E50003368ED1AA3680CBF25EAE5750025934297
:102E6000C4BF9B1AED1800261A34B5421AD10020AF
:102E700008E00123524641463846C847013003D195
:102E80004FF0FF30BDE8F0870135C6E7E1185A1C66
:102E9000302081F84300224494F8451082F8431012
:102EA0000233C7E70123224641463846C84701306E
:102EB000E6D00136D9E700002DE9FF470F7E0C9ED2
:102EC000782F914680460C469A4601F1430207D876
:102ED000622F0AD8002F00F0D280582F00F0B9805E
:102EE00004F1420684F842703AE0A7F16303152B1F
:102EF000F6D801A151F823F0512F0008652F0008E2
:102F0000E12E0008E12E0008E12E0008E12E000865
:102F1000652F0008E12E0008E12E0008E12E0008D0
:102F2000E12E0008653000088F2F00081F300008D0
:102F3000E12E0008E12E000887300008E12E00088D
:102F40008F2F0008E12E0008E12E0008273000082E
:102F500033681A1D1B68326004F1420684F842305F
:102F600001239DE033682068191D3160060601D5F4
:102F70001D6803E04506FBD5B3F90050002D03DAC8
:102F80002D236D4284F8433059480A2311E021680B
:102F90003368080653F8045B02D4490648BFADB253
:102FA0006F2F5348336014BF0A230823002184F88D
:102FB00043106668A660002EA2BF216821F00401BC
:102FC00021600DB9002E4BD01646B5FBF3F103FB83
:102FD0001157C75D06F8017D2F46BB420D46F4D957
:102FE000082B0BD12368DF0708D523696168994254
:102FF000DEBF302306F8013C06F1FF36921B22614A
:10300000CDF800A04B4603AA21464046FFF7E6FE56
:1030100001304AD14FF0FF3004B0BDE8F08723689B
:1030200043F0200323603348782784F845702368F1
:1030300031681F0651F8045B02D45F0648BFADB289
:103040003160D90744BF43F0200323601DB1102332
:10305000ACE72748E9E7236823F020032360F6E77D
:103060001646BDE7336825686169181D30602E0675
:103070001B6801D5196002E06806FBD519800023A2
:1030800023611646BCE733681A1D32601E68626809
:1030900000213046FDF7C4F808B1801B606063680A
:1030A0002361002384F84330AAE723693246494666
:1030B0004046D0470130ADD023689B0713D4E06869
:1030C000039B9842B8BF1846A6E7012332464946FB
:1030D0004046D04701309DD00135E36803995B1A23
:1030E000AB42F2DCEBE7002504F11906F5E700BF7F
:1030F0004532000856320008884210B501EB020440
:1031000002D98442234607D8431EA14208D011F8B1
:10311000012B03F8012FF8E7024401468A4200D14F
:1031200010BD13F8014D02F8014DF7E738B5064D13
:103130000023044608462B60FEF7ECFB431C02D13B
:103140002B6803B1236038BDF40200200A44914289
:1031500000F1FF3300D1704710B511F8014B03F8AF
:10316000014F9142F9D110BD2DE9F041804615463D
:103170000C4621B9BDE8F0411146FFF74BBC2AB916
:10318000FFF7DCFB00242046BDE8F08100F01AF8D0
:103190008542064602D8B5EB500FF4D82946404682
:1031A000FFF738FC07460028ECD0B5422A462146F6
:1031B00028BF3246FFF7CAFF21464046FFF7BEFB55
:1031C0003C46E0E751F8043C181F002BBCBF0B58ED
:1031D000C0187047F8B500BFF8BC08BC9E467047E1
:0C31E000F8B500BFF8BC08BC9E46704764
:1031EC005374617274210D0A000000005472616EF8
:1031FC00736D697465640D0A000000004661696CAA
:10320C0065640D0A00000000256C750D0A000000B5
:10321C000000000001020304000000000000000098
:10322C000102030406070809232D302B2000686CCB
:10323C004C006566674546470030313233343536CD
:10324C003738394142434445460030313233343506
:0C325C0036373839616263646566000033
:08326800A8CFFF7F0100000068
:04327000F50100085C
:04327400D10100087C
:1032780001000000100000000024F40010000020ED
:1032880000000000BC010020240200208C02002065
:103298000000000000000000000000000000000026
:1032A8000000000000000000000000000000000016
:1032B8000000000000000000000000000000000006
:0C32C800000000000000000000000000FA
:040000050800284186
:00000001FF
